:1079000000D00F92CDB7DEB7F89411248FED98E038
:107910009EBF8DBFCDB7DEB784B714BE83FF18C03E
:107920004091EC085091ED086091EE087091EF08DD
:107930004F3E5E4B6D4A7E4D59F41092EC0810920A
:10794000ED081092EE081092EF088091EB08F4D247
:107950008093EB088FEE9EEBADEABEED8093EC08D2
:107960009093ED08A093EE08B093EF0811E0A0E02B
:10797000B1E0ECE4FFE702C005900D92A230B10740
:10798000D9F711E0A2E0B1E001C01D92A834B1071F
:10799000E1F78AB183608AB98BB18C7F8BB982E0C1
:1079A0008093C00088E18093C10086E08093C2008C
:1079B00080E18093C40084B1886284B92498229ABB
:1079C0001CBC80E58CBD01E00DBD8DB58EB5579A10
:1079D000209A80E991E027D15F9831D180E197E248
:1079E00022D16FE784E042D12CD184E012D180E033
:1079F00010D1182F24D11F3711F566E286E036D159
:107A000063E08CE133D164E08DE130D160E787E061
:107A10002DD16AE285E02AD161E083E027D163E0DD
:107A200081E024D10093460180E389838A8381E346
:107A30008B83BE016F5F7F4F8BE005D124D188E13E
:107A4000809360008EE08093600010E000E038E1F9
:107A5000A32E48E0942E8824839455E0552E61E1AE
:107A6000462E73E0B72EB1D1813481F4AED1F82E19
:107A700050D282E8F81202C080E004C091E885E0AC
:107A8000F91283E011D180E10FD1EDCF823419F4E6
:107A900084E145D2F8CF853411F485E0FACF8535FD
:107AA00049F493D1082F10E090D1182B000F111F2B
:107AB00030D2E9CF863519F484E031D2DDCF843677
:107AC00009F06AC082D181D1E82E7FD1382EE6E458
:107AD0008E1307C00115F0E71F0718F4F801B7BEB1
:107AE000E89580E8C82EDD24D39490E8F92EFE0CAA
:107AF0003601FFEFCF1ADF0A68D1F3018083FC1053
:107B0000F7CFEA94F12CF6E43F1227C0011520E7E5
:107B1000120718F0F801B7BEE895FBD107B600FCD4
:107B2000FDCFA801A0E8B1E08C919D011296F9016A
:107B30009181FA010C0187BEE89511244E5F5F4FD9
:107B4000A115F2E0BF0781F7F80157BEE89507B627
:107B500000FCFDCF47BEE89596CFF5E43F1293CFEA
:107B6000D8D12FEFE21AF20AFF2490E080E0FC0166
:107B7000E058FE4F9801280F391F8E159F0509F414
:107B800082CFA8954081F999FECF32BD21BD40BD7D
:107B9000FA9AF99A0196EBCF843751F516D115D19F
:107BA000D82E13D1F82EB5D186E4F81208C0F8010A
:107BB00085918F0179D0DA94D110F9CF64CF95E413
:107BC000F91261CFCD2CC8010CC07C01EFEFEE1A89
:107BD000FE0AF999FECF92BD81BDF89A80B564D0B6
:107BE000C701CA94FFEFCF12F0CF0D0D111D4BCF7F
:107BF000853739F48ED18EE157D085E955D08FE0A5
:107C000041CF813509F054CFA0926000909260007E
:107C10004FCF8EBD8FEF81500DB407FC02C0811194
:107C2000FACF8EB50895019708F40895000000007A
:107C300000000000000000000000A895F4CF289A82
:107C40000895289808951F93CF93DF93182FEB0181
:107C5000F8DF812F8062DDDF8881DBDF8981D9DF7A
:107C60008A81D7DFDF91CF911F91E9CFCF93DF9347
:107C7000D82FC62FE6DF8D2F8062CBDF8C2FC9DF98
:107C8000DF91CF91DCCF8091450181110CC06FE76E
:107C9000EDDF62E082E0EADF84E190E0C4DF5F9A3A
:107CA00081E0809345010895DF92EF92FF920F9358
:107CB0001F93CF93DF9390914701992309F47EC0DE
:107CC000E091440191E09E0F90934401F0E0EC5D5F
:107CD000FE4F8083803121F08091010198135AC0BA
:107CE00010E8DD24D394115009F44CC080E49FE1E6
:107CF0009ADF0091440180914501882331F080E9A9
:107D000091E091DF5F98D09245016EE780E0AEDFB1
:107D100061E082E0ABDF95DF81EE7BDF90DF91DF1A
:107D200080EA77DFC4E2D1E0015008F03BC087DF92
:107D300084E190E078DF5F9A84DF8FEF6ADFC82FFD
:107D40007EDF80E991E06FDF5F9880E1E82E87E2D7
:107D5000F82EDC2FD072C5FF02C0C0FF06C0C4FDE4
:107D600004C081E0E81AF10801F560E387E07EDFF6
:107D700080914501882319F01092450184DFDD23AD
:107D800009F4B1CF81E080934401809124018F5F99
:107D900080932401DF91CF911F910F91FF90EF907D
:107DA000DF900895899135DFBFCF84E190E03BDF1C
:107DB00048DF8FEF2EDFC82F42DFCBCF9091C0007E
:107DC00095FFFCCF8093C600E5CFFF920F931F93E2
:107DD000CF93DF93D1E085E0F82E8091460190911A
:107DE000C00097FF0DC08091C00084FD01C0A89520
:107DF0008091C600DF91CF911F910F91FF90089560
:107E0000882369F3809123018823A9F0A8958091A4
:107E100023018823D1F0E091020181E08E0F80934D
:107E20000201F0E0ED5FFE4F8081909123019150BF
:107E300090932301DFCF05DF87E1EBDE80E0E9DE11
:107E4000C82FFDDEC0FFE2CFC8CF60E487E00EDFC1
:107E5000F8DE80E6DEDE80E0DCDEC82FF0DEC093F8
:107E60002301EFDE81E6D5DE03E011E0C15070F5BD
:107E7000E6DED093020180914701811119C0809103
:107E80002301843048F163E071E080E1DCDE63E0EF
:107E900071E08AE0D8DE8091060180930101809133
:107EA0002301845080932301F0920201D093470173
:107EB00080912301882309F490CF909103012091B0
:107EC000000192130CC01092230187CF80E0A1DE45
:107ED000F80181938F01CACF10922301E9CF9093CB
:107EE000000181508093230196CF80914501882322
:107EF00021F080E991E097DE5F986CE780E0B6DEE4
:107F00001092450188E18093600088E080936000D2
:107F1000FFCF5BDF803209F0E8DF84E1C5CECF938D
:107F2000C82F53DFC150E9F7CF91F3CFE0E6F0E07F
:107F300098E1908380830895E0E6F0E098E19083F3
:0C7F400098E29083282EEE27FF2709947A
:027F4C00FF2014
:027FFE0000057C
:040000030000790080
:00000001FF
